:020000040800F2
:1000000080040020450100080512000817110008AF
:10001000C1110008D1020008A1130008000000006F
:1000200000000000000000000000000009120008AD
:100030000D03000800000000071200080B12000862
:100040005F0100085F0100085F0100085F01000810
:100050005F0100085F0100085F0100085F01000800
:100060005F0100085F0100085F0100085F010008F0
:100070005F0100085F0100085F0100085F010008E0
:100080005F0100085F0100085F0100085F010008D0
:100090005F0100085F0100085F0100085F010008C0
:1000A0005F0100085F0100085F0100085F010008B0
:1000B0005F0100085F0100085F0100085F010008A0
:1000C0005F0100085F0100085F0100085F01000890
:1000D0005F0100085F0100085F0100085F01000880
:1000E0005F0100085F0100085F0100085F01000870
:1000F0005F0100085F0100085F0100085F01000860
:100100005F0100085F0100085F0100085F0100084F
:100110005F0100085F0100085F0100085F0100083F
:100120005F0100085F0100085F0100085F0100082F
:10013000DFF80CD000F0BAF800480047E1130008DF
:10014000800400200648804706480047FEE7FEE797
:10015000FEE7FEE7FEE7FEE7FEE7FEE7FEE7FEE777
:100160006D12000831010008D2B201E000F8012B45
:10017000491EFBD270470022F6E710B513460A4627
:1001800004461946FFF7F0FF204610BDF0B480EAA0
:100190000102D40F4200B2EB410F02D202460846E0
:1001A00011464A0042D0C30DDDB2C1F3C752AD1AA9
:1001B000202D35DAC1F3160141F4000204B1524298
:1001C000C5F1200602FA06F12A411044B3EBD05FD4
:1001D00023D0C4B1012DA0EBC35009DCF0BC4FF01B
:1001E000004202EAC352DBB200F5000000F02FB873
:1001F000400000F1807000EBC350A0F1807040EA35
:10020000D170490009E0490841EAC071A0EBC35030
:1002100000F50000400800EBC350F0BC00F00EB841
:100220006142012202EB4101001BF6E7F0BC70477E
:1002300081F00041AAE780F00040A7E70029A8BFAD
:100240007047401C490008BF20F00100704710B4FF
:10025000B0FA80FC00FA0CF050EA010404BF10BCB4
:10026000704749B1CCF1200421FA04F411FA0CF1E1
:1002700018BF012121430843A3EB0C01CB1D4FEA1A
:1002800000614FEA102042BF002010BC704700EB15
:10029000C35010440029A4BF10BC7047401C490043
:1002A00008BF20F0010010BC70470000064C074D4D
:1002B00006E0E06840F0010394E807009847103436
:1002C000AC42F6D3FFF738FFC4140008E41400086A
:1002D000FEE7000000B58BB00020012100900190E6
:1002E00002900390CDE90401CDE906010E20CDE98D
:1002F00008106946044800F07DF8002801D072B665
:10030000FEE70BB000BD000010000020704772B681
:10031000FEE790F82020012A07D0022A05D0416A82
:1003200041F48021416201207047006842690A431C
:10033000426100207047F0B590F820500468A4682E
:10034000012D05D0022D03D0416A41F480214DE0FA
:1003500014F0406F01D1E50045D5C4F301640125D7
:10036000A5401D608D684FF4C0739DB1CE683543C4
:100370004E6845EAC605066803EB0417F5514FF4CD
:10038000C275076805EB04150E697E51097D0129C8
:1003900005D009E00E88CD6845EA4655EBE70168CF
:1003A0004E5946F480764E511179D2F805504FF4EB
:1003B000C67641EA0521056806EB0416A9511178B5
:1003C000D2F801204FF4C47541EA0221026805EB1E
:1003D00004155151006803EB0411425842F0010228
:1003E00042500020F0BD416A41F4001141620120F9
:1003F000F0BD000010B590F820300268012B07D046
:10040000022B05D0416A41F480214162012010BDD8
:10041000D2F8000240F00100C2F80002087D00F0AE
:100420001F0301209840D2F81C328343C2F81C32CB
:10043000CB69B3B9D2F80C328343C2F80C328C8941
:100440004B6864F31F434C6902EBC404C4F84032A8
:100450000C890B6864F31F434C6902EBC404C4F8B5
:100460004432CB69012B16D1D2F80C320343C2F8C7
:100470000C320C884B6864F31F434C6902EBC404D4
:10048000C4F840320C89CB6864F31F434C6902EB1B
:10049000C404C4F844328B69002BD2F804320FD064
:1004A00053EA0003C2F804320B69002BD2F814326D
:1004B00008D00343C2F81432096A012904D008E0C5
:1004C0008343EFE78343F5E7D2F81C120143C2F8F8
:1004D0001C12D2F8000220F00100C2F80002002035
:1004E00010BD70B5040003D094F8200010B104E0F2
:1004F000012070BD204600F081F82068016841F0BD
:100500000101016000F0EAF90546052604E000F06B
:10051000E5F9401B0A2811D820684068C007F6D0CA
:100520002068016821F00201016000F0D7F905465A
:100530000BE000F0D3F9401B0A2806D9606A40F4AA
:100540000030606284F82060D2E72068406880074D
:10055000EFD4207E0128206801683DD021F0800181
:100560000160607E01282068016838D021F04001D8
:100570000160A07E01282068016833D021F02001AD
:100580000160E07E0128206801682ED041F0100152
:100590000160207F01282068016829D021F008012E
:1005A0000160607F01282068016824D021F00401E7
:1005B0000160D4E902010843D4E90412114308435D
:1005C0006168491E08432168C861002060620120FB
:1005D00084F82000002070BD41F08001C0E741F0A8
:1005E0004001C5E741F02001CAE721F01001CFE743
:1005F00041F00801D4E741F00401D9E710B586B015
:1006000000210091019102910391006813498842F1
:1006100022D11348C16941F00071C161C16901F083
:1006200000710491816941F00401816180690D4C80
:1006300000F0040004904FF40060009069462046EA
:1006400000F050F8A01400900220019003200390C5
:100650006946204600F046F806B010BD0064004030
:10066000001002400008014070B5044690F82000D8
:10067000012804D0606A40F40020606218E0022083
:1006800084F820002068016821F00101016000F079
:1006900025F905460EE000BF00F020F9401B0A28AE
:1006A00008D9606A40F400306062052084F82000B8
:1006B000012070BD20684068C007EDD1606270BD48
:1006C00070B5044600F00AF90546601C02D00448E3
:1006D0000078044400F002F9401BA042FAD370BD38
:1006E000000000202DE9F84FDFF8C8910024A9F19F
:1006F000040B23460F2709F1040AABF1040ED1E0E5
:100700000125A54006EA0502AA4276D1DFF8A8C174
:100710004E68A6EB0C0866452BD00DDC032E34D0BA
:1007200005DC36B3012E19D0022E2FD11BE0112E7D
:1007300016D0122E2AD119E0B8F5881F19D006DC80
:10074000B8F5803F15D0B8F5801F1FD111E0B8F57E
:10075000001F0ED0B8F5041F18D10AE0CB6815E0D1
:10076000CB681B1D12E0CB6808330FE0CB680C335D
:100770000CE08B682BB1012B4FF0080303D04561CF
:1007800004E0042302E0056100E00023FF2A01D811
:10079000064601E000F104064FEA840501D9A5F1FF
:1007A0002005D6F8008007FA05FC28EA0C0803FAB1
:1007B00005F548EA0508C6F800804D68ED0070D5DB
:1007C0003E4DAE6946F00106AE61AD6924F0030608
:1007D00005F0010500953A4D06EB050CDCF80850D4
:1007E000A607360F07FA06F825EA0805DFF8D480D1
:1007F000404503D14FF0000825E052E0DFF8C88003
:10080000404502D14FF001081DE0DFF8C0804045AF
:1008100002D14FF0020816E0DFF8B480404502D163
:100820004FF003080FE0DFF8AC80404502D14FF0F5
:10083000040808E0DFF8A080404502D14FF0050829
:1008400001E04FF0060808FA06F848EA0508CCF877
:1008500008804D68D9F80060ED024D4601D5164379
:1008600000E096432E604D68DAF80060AD02554610
:1008700001D5164300E096432E604D68DBF800601A
:10088000AD035D4601D5164300E096432E604D68EA
:10089000DEF80060ED03754601D5164300E096438F
:1008A0002E60641C0A681646E2407FF429AFBDE85A
:1008B000F88F0000080401400000111000100240F1
:1008C0000000014000080140000C01400010014000
:1008D0000014014000180140001C014001488068DC
:1008E000704700000000002002488168027811442F
:1008F0008160704700000020074810B5016841F092
:1009000010010160032000F067F80F2000F006F8E6
:1009100000F024F8002010BD0020024070B50D4DFD
:1009200004464FF47A712878B1FBF0F00A4909685F
:10093000B1FBF0F000F0CEFA48B9102C07D200223B
:100940002146501E00F028F800206C6070BD012088
:1009500070BD0000000000200C0000200C4808B50D
:10096000816941F001018161816901F0010100911A
:10097000C16941F08051C161C06900F080500090B0
:100980000448416821F0E06141F00071416008BD18
:100990000010024000000140F0B40E4B1B680C46F2
:1009A000C3F30223C3F10705042D00D90425191D43
:1009B000072901D2002300E0DB1E012606FA05F11B
:1009C000491E214099409E40761E16403143F0BC9E
:1009D00000F0E7BC0CED00E0064900F007020868F3
:1009E0004FF6FF03184040EA0220034A1043086014
:1009F000704700000CED00E00000FA052DE9F0471B
:100A00000F46050061D0434E306800F00700B84241
:100A100009D2306820F0070038433060306800F0B9
:100A20000700B84251D128683B4C810712D54007D6
:100A300003D5606840F4E06060602878000703D563
:100A4000606840F4605060606068A96820F0F00061
:100A5000084360602878C00728D06868012810D053
:100A60002168022810D0890700292EDA616821F058
:100A7000030101436160FFF731FF804641F288398D
:100A80000DE021688903EFE78901EDE7FFF726FF15
:100A9000A0EB0801494502D90320BDE8F087606852
:100AA000696800F00C00B0EB810FEFD1306800F006
:100AB0000700B8420BD9306820F007003843306097
:100AC000306800F00700B84201D00120E5E728783F
:100AD000400705D56068E96820F4E060084360607D
:100AE0002878000706D56068296920F4605040EA3C
:100AF000C100606000F038F86168084AC1F3031172
:100B0000515CC8400649086006480068FFF706FFC8
:100B10000020C2E70020024000100240AA14000892
:100B20000C000020040000200448054900684968C2
:100B3000044AC1F30221515CC84070470C000020F8
:100B400000100240BA1400080448054900684968CA
:100B5000044AC1F3C221515CC84070470C00002018
:100B600000100240BA1400080E4A51680E4801F005
:100B70000C03042B11D0082B0FD10C48C1F3834375
:100B8000C903C05C0AD55168084AC1F34041921EAE
:100B9000515C054A5043B0FBF1F0704704494843AB
:100BA000704700000010024000127A009A140008FA
:100BB00000093D002DE9F84F040070D02078C04DA9
:100BC000C00749D06868C0F38100012807D0686871
:100BD000C0F38100022809D16868C00306D52868DF
:100BE000800339D560680028E7D035E06068B0F54B
:100BF000803F0BD010B1B0F5A02F11D0286820F4A1
:100C000080302860286820F4802002E0286840F4C2
:100C100080302860606890B1FFF760FE06460AE009
:100C2000286840F480202860F0E700BFFFF756FEF8
:100C3000801B642873D828688003F7D50CE0FFF781
:100C40004DFE064605E000BFFFF748FE801B642806
:100C5000F0D828688003F7D420789A4E80074FF0A8
:100C600001094FF0000839D5686810F00C0F07D063
:100C70006868C0F38100022809D16868C00306D4FF
:100C80002868800714D52069012808D110E0206960
:100C9000B0B1C6F80090FFF721FE074605E00AE173
:100CA000FFF71CFEC01B0228C4D828688007F7D5B0
:100CB0002868616920F0F80040EAC10028600DE072
:100CC000C6F80080FFF70AFE074604E0FFF706FEBD
:100CD000C01B022823D828688007F7D42078000793
:100CE0002CD57948A169D9B1C0F80090FFF7F6FD7D
:100CF000074604E0FFF7F2FDC01B02280FD8686A20
:100D00008007F7D571484FF4FA510068B0FBF1F055
:100D1000009000BF0098411E0091FAD20EE080E0E2
:100D2000C0F80080FFF7DAFD074604E0FFF7D6FDC4
:100D3000C01B022875D8686A8007F7D4207840075E
:100D400060D5E8690027C00008D4E86940F0805009
:100D5000E861E869012700F0805000905C48016874
:100D6000C90513D40168834641F480710160FFF71F
:100D7000B5FD824606E000BFFFF7B0FDA0EB0A001C
:100D800064284ED8DBF80000C005F5D5E0680128DE
:100D90000AD008B1052813D0286A20F00100286283
:100DA000286A20F0040002E0286A40F0010028626E
:100DB000E06841F2883B98B1FFF790FD82460BE076
:100DC000286A40F004002862EEE700BFFFF786FDC6
:100DD000A0EB0A0159455AD8286A8007F6D50CE0DD
:100DE000FFF77CFD824605E0FFF778FDA0EB0A01E6
:100DF00059454CD8286A8007F6D41FB1E86920F01D
:100E00008050E861E06988B36968C1F38101022913
:100E100044D00228C6F8608004D0FFF75FFD044686
:100E200038E034E0FFF75AFD074604E0FFF756FDCF
:100E3000C01B02282BD828688001F7D4206AB0F59F
:100E4000803F05D16868A16820F4003008436860DD
:100E5000D4E908010843696821F474110843686003
:100E6000C6F86090FFF73AFD044606E025E000BFB3
:100E7000FFF734FD001B022809D828688001F7D548
:100E80001BE000BFFFF72AFD001B022802D9032048
:100E9000BDE8F88F28688001F4D40EE00128F7D06F
:100EA0006868226A00F48031914204D1616A00F4DA
:100EB0007010884201D00120EAE70020E8E7000036
:100EC0000010024000004242800442420C00002018
:100ED0000070004010B5401EB0F1807F01D30120AA
:100EE00010BD4FF0E02460610F21601700F059FA47
:100EF0000020A06107202061002010BD70B5040013
:100F000004D094F84100002510B106E0012070BD26
:100F100084F84050204600F023F8242084F8410053
:100F20002068C16821F40051C160204600F0A0F99A
:100F30002068016921F4904101612068416921F034
:100F40002A0141612068C16841F40051C1606564B3
:100F5000202084F8410084F842006563002070BDC1
:100F600030B585B000240094019402940394006885
:100F70001449884224D11448816941F48041816137
:100F8000816901F480410491816941F0040181612A
:100F900080690E4D00F0040004904FF40070009042
:100FA000022001900320039069462846FFF79AFB30
:100FB0002815CDE90004694628460294FFF792FB04
:100FC00005B030BD0038014000100240000801406B
:100FD0002DE9F843044690F84200994616460D461E
:100FE000202802D00220BDE8F883ADB1A6B10020D0
:100FF0006064222184F842102063FFF76FFCA6850D
:101000008046E685A0684FF48057B84201D1206938
:1010100020B12E46002526E00120E4E7002622E04C
:101020004346002220212046CDF8009000F07CF9B4
:1010300008B10320D7E726B1A068B8421BD038B169
:1010400008E020684068C0F3080025F8020B07E0BC
:10105000206980B12068406800F07F0006F8010B2D
:10106000E08D401EE085E08D0028D9D1202084F855
:1010700042000020B7E720684068EFE72DE9F84319
:10108000044690F841001F4616460D46202802D01F
:101090000220BDE8F8837DB176B100206064212094
:1010A00084F84100FFF71AFCA6848046E684A06815
:1010B000B0F5805F02D003E00120EAE7206910B1BB
:1010C0002E4600250EE000260CE08021204600F090
:1010D0002BF9A0B9AEB116F8010B21684860E08C7D
:1010E000401EE084E08C43464FF000020097002849
:1010F000EBD14FF04001204600F016F930B103204B
:10110000C7E735F8020BC0F30800E6E7202084F8B3
:1011100041000020BDE7FEE70F4810B50D49016012
:101120000421416000214FF440328160C0E9031284
:1011300012014261017641768176C176017741776D
:10114000FFF7CFF9002803D0BDE81040FFF7DFB864
:1011500010BD00000064004010000020094808B5E0
:10116000816941F020018161816901F020010091D4
:10117000816941F004018161806900F00400009000
:1011800008BD0000001002400C4810B50A4901607B
:101190004FF416514160002181600C22C160C0E90A
:1011A00004128161C161FFF7A9FE002803D0BDE8E8
:1011B0001040FFF7ACB810BD0038014038000020E7
:1011C000FEE7000000B589B000230793089302935F
:1011D000039341EA00200823049306920090FF2322
:1011E000082206A90548FFF749FF08AB06AA694689
:1011F0000348FFF7A0F809B000BD00003800002048
:1012000010000020FEE770477047FFF76DBB30B558
:101210008FB028216846FEF7AEFF14210AA8FEF71A
:10122000AAFF01210804CDE9001000240294022540
:101230000491CDE907504FF4E01009906846FFF79C
:10124000B9FC08B172B6FEE70F20CDE90A054FF4EC
:101250008060CDE90C4002210AA80E94FFF7CEFB76
:10126000002801D072B6FEE70FB030BD7047000015
:1012700070B5044600680169E26821F440511143E9
:1012800001612169A0680843616908432168CA684F
:1012900041F20C639A430243CA6020684169A26923
:1012A00021F44071114341611E492068884202D1F6
:1012B000FFF74AFC01E0FFF737FC00EBC00101EB50
:1012C0000012606864218000B2FBF0F3B3FBF1F31D
:1012D0006FF018067343B2FBF0F5B2FBF0F605EBC6
:1012E0008305322303EB0515B5FBF1F5B6FBF1F6EB
:1012F00005F0F00505EB0615B2FBF0F6B2FBF0F0D9
:10130000B0FBF1F06FF01802504306EB800003EBE6
:101310000010B0FBF1F0216800F00F002844886055
:1013200070BD0000003801402DE9F0419846174695
:101330000E460446069D27E0681C25D02DB1FFF718
:10134000CDFAA0EB0800A8421ED920680C3050E866
:10135000001F21F4D07140E80012002AF5D1206866
:10136000143050E8001F21F0010140E80012002A6B
:10137000F5D1202084F8410084F84200002084F850
:1013800040000320BDE8F0812068006836EA0000D4
:1013900004D00020B842CFD00020F3E70120F9E7C5
:1013A000FEE70907090E002804DB00F1E02080F8C1
:1013B0000014704700F00F0000F1E02080F8141DC9
:1013C000704702E008C8121F08C1002AFAD170470E
:1013D0007047002001E001C1121F002AFBD17047B5
:1013E00008B500252C462E468DF80050FFF784FAEC
:1013F000FFF70DFFFFF7B2FEFFF78EFEFFF7C4FE0B
:10140000FEF768FF2248FFF72FF902212048FEF778
:1014100080FF4FF0FF384FF07E5743460122694668
:101420001C48FFF7D5FD9DF80000012806D00228D2
:101430000ED0032811D004281AD114E039462846CA
:10144000FEF7A4FE054639462046FEF7F1FE08E009
:1014500039462846FEF7ECFE054639462046FEF79B
:1014600095FE044604E039462846FEF7E1FE0546AF
:101470002A460C210120FFF7A5FE22460C2102205E
:10148000FFF7A0FE8DF800606420FFF719F9C4E7AC
:1014900010000020380000200102020304050607A6
:1014A00008090A0B0C0D0E0F1010000000000000C0
:1014B0000000010203040607080900000000010201
:1014C00003040000E41400080000002010000000E5
:1014D000C2130008F414000810000020700400007B
:1014E000D2130008010000001000000000000000FE
:0414F0000024F400E0
:0400000508000131BD
:00000001FF
